:1000000000800020BD010000A12900005929000046
:1000100059290000592900005929000059290000D8
:10002000592900005929000059290000A129000080
:10003000A129000059290000A12900004929000038
:10004000A1290000A1290000A1290000A129000088
:10005000A1290000A1290000A1290000A129000078
:10006000A1290000A1290000A1290000A129000068
:10007000A1290000A1290000A1290000A129000058
:10008000A1290000A1290000A1290000A129000048
:10009000A1290000A1290000A1290000A129000038
:1000A000912200009D220000A1290000A12900004A
:1000B000A1290000A1290000A1290000A129000018
:1000C000A1290000A1290000A1290000A129000008
:1000D000A1290000A1290000A1290000A1290000F8
:1000E000A1290000A1290000A1290000A1290000E8
:1000F000A129000031490000A1290000755000002D
:10010000A1290000E5550000A1290000A129000057
:10011000A1290000A1290000A1290000A1290000B7
:10012000A1290000A1290000A1290000A1290000A7
:10013000A1290000A1290000A1290000A129000097
:10014000A1290000A1290000A1290000A129000087
:10015000A1290000A1290000A1290000A129000077
:10016000A1290000A92F0000A1290000A129000059
:10017000A1290000A1290000A1290000A129000057
:10018000A1290000A1290000A1290000A129000047
:10019000A1290000A1290000A1290000A129000037
:1001A000A1290000A1290000A1290000A129000027
:1001B000A1290000A1290000F53D0000564B4CF29A
:1001C000205210B51A804DF628121A8000BF00BFC9
:1001D00002F0EAFB514B4FF010621A60504A9A60ED
:1001E000504ADA60504A136813F4807304D14F49BF
:1001F0000B604FF4A85313604D4B1A78110703D5C9
:100200001A7842F008021A704A4B4B492A221A7097
:100210004A4A4B4B8B4204D252F8040F43F8040B6A
:10022000F8E7484B484900228B4202D243F8042B9E
:10023000FAE74649464A002352F8230041F82300D2
:1002400001336F2BF8D1434B434A802103F8011B44
:100250009342FBD1414B3D4A1A60414B8A221A70AE
:10026000A3F5805324225A70A0221A709A7992071B
:10027000FCD59A79D406FCD43A4A937903F00C035E
:10028000082B384BF9D103221A7140225A719A79FE
:100290009006FCD5334A9179324B4906FBD5324A58
:1002A000324911600221516020221A709A7902F0BD
:1002B0000C020C2AFAD12E4B2E4A1A602E4B2F4AD2
:1002C0001A6000225A60072243F8042C2C4AC3F813
:1002D0000C2D62B602F040FD144B1B68DA0705D501
:1002E000284802F0BFFC284B284A1A60284B1B788C
:1002F0005B0609D5244C254B22689A4204D121483B
:1003000002F0B0FC0023236006F06EFD02F052FB09
:1003100003F06EFFFEE700BF0E2005403080044072
:10032000823F04000100002B10D0034014D0034092
:1003300002D0074000E0074014A1FF1F24EF000097
:100340002093FF1F14A1FF1F84ACFF1F008EFF1F0F
:100350000000000000E400E05FE400E008ED00E0E1
:100360000050064000400640448004400000030165
:1003700004800440C010050014E000E0FF76010096
:10038000000020207F3117591CE00340A5C3945A78
:1003900000F00740FFFFFFFFFFFFFFFFFFFFFFFF32
:1003A000FFFFFFFFFFFFFFFFFFFFFFFFFFFFFFFF5D
:1003B000FFFFFFFFFFFFFFFFFFFFFFFFFFFFFFFF4D
:1003C000FFFFFFFFFFFFFFFFFFFFFFFFFFFFFFFF3D
:1003D000FFFFFFFFFFFFFFFFFFFFFFFFFFFFFFFF2D
:1003E000FFFFFFFFFFFFFFFFFFFFFFFFFFFFFFFF1D
:1003F000FFFFFFFFFFFFFFFFFFFFFFFFFFFFFFFF0D
:10040000FFFFFFFFFFFFFFFFFFFFFFFFDEF9FFFF23
:1004100010B5054C237833B9044B13B10448AFF33E
:1004200000800123237010BD14A1FF1F00000000F5
:1004300028EF0000084B10B51BB108490848AFF37E
:1004400000800848036803B910BD074B002BFBD0A0
:10045000BDE81040184700BF0000000018A1FF1FB2
:1004600028EF000014A1FF1F00000000002310B4BB
:10047000104C4172026104600372C36041B11946BD
:1004800000E0026942F82310427A01339A42F8DC14
:10049000094B1A680AB90AE01A465369002BFBD1C6
:1004A0005061002343618380C38010BC7047186093
:1004B000F7E700BFC8E8000038AAFF1F70B5284A58
:1004C00028491068284C294E82B00B783BB123781C
:1004D0009B0704D0136835685B1B182B04D813687E
:1004E0001B1AB3F57A7FF0D94FF4967002F0E6FB51
:1004F00008211F481F4C03F069FB1F4B1A68B3F912
:100500000410E261012A01D9C8291BDD02211B4820
:1005100000F058FE1A4B0022114610464FF4803569
:1005200001269D61DD611A625A62E66102F0C0FB3C
:100530000A21144803F06AFA134802B0BDE870407B
:1005400003F02CBD8023009389B204F12C0304F145
:10055000200005F0E1FA0028D8D00023E361D5E7B8
:1005600038A9FF1F1CAAFF1F34AAFF1F7CACFF1F66
:100570000082FF1FC4A1FF1F0094FF1FB8A4FF1F2C
:1005800080A4FF1FCCE8000064AAFF1F38B5094C07
:10059000094D014600232046AB6100F0DBFF0A2035
:1005A00002F08CFB94F82630002BF8D14FF4803306
:1005B000AB6138BD34A1FF1F80A4FF1F70B58A480E
:1005C00084B001F0D7FE884801F0FAFEA0B1874D53
:1005D000874C2B680133022B88BF0023D900601899
:1005E0002B60B0F90620012A00F0C480022A00F036
:1005F000A380002A00F092807E4E7F4D33680293E4
:10060000029B296840F6C3125B1A934258D972B60E
:100610007A4C237F03F0FF020BB10023237762B6ED
:10062000002A4FD10721764803F0F0F9754B18885E
:1006300006F024FA744906F06DF9744906F026FBB9
:1006400005F03EFE022402460B460094704803F07B
:10065000F7FC21466F4803F0D9F96F4B188806F074
:100660000DFA694906F056F9684906F00FFB05F0E6
:1006700027FE009402460B46654803F0E1FC0A2180
:10068000664803F0C3F9664B614819780A220023D3
:1006900003F094FC21465F4803F0B8F9614B5C48D5
:1006A00019780A22002303F089FC01215E4803F037
:1006B000ADF9574803F072FC33680393039B2B603A
:1006C00004B070BD1321594803F0A0F972B647F683
:1006D000FF714FF40042B4F91E00B4F92030E183F9
:1006E000228462B60028B8BF4042002BB8BF5B42EC
:1006F0009842B8BF184606F0C1F94D4906F0C6FA4F
:1007000005F0DEFD022402460B460094404803F04B
:1007100097FC2146474803F079F983E7464B474861
:100720000122DA61FFF732FF0821454803F06EF934
:10073000374803F033FC5FE754F833203E4E214442
:10074000012AF261B1F9041001D9C8293DDD3D4803
:10075000FFF71CFF03213C4803F058F92C4803F035
:100760001DFC2B6804EBC304B4F90620002A7FF4B7
:1007700043AFD3E754F833202F4EB0F90410F261A1
:10078000012A01D9C82912DD3048FFF7FFFE0521F3
:100790002F4803F03BF91E4803F000FC2B68D900FA
:1007A0006218B2F90620022A7FF423AFC4E780233F
:1007B000009389B206F12C0306F1200005F0ACF994
:1007C0000028E1D00023F361DEE78023009389B2A3
:1007D00006F12C0306F1200005F09EF90028B6D0A2
:1007E0000023F361B3E700BF90A1FF1F7CA1FF1FAF
:1007F0000094FF1F38A9FF1F30A1FF1FA0A1FF1FFA
:1008000008E9000060AAFF1F7B14AE427B142E4350
:1008100064AAFF1F10E9000046AAFF1F14E90000A8
:1008200045AAFF1F3CAAFF1F20E90000F0E80000D6
:1008300000FEFF4604E90000C4A1FF1FB89B0000B2
:10084000E4E800003CBD0000E0E80000B4780000EF
:10085000D8E800002DE9F04F744FDFF8F081744DB7
:10086000DFF820920022114683B03846FFF7FEFDE4
:10087000704BD8F800203B60002387F826306B725D
:100880002B612B72EB60C5F800900AB9C8E01A46DC
:100890005369002BFBD15561674EDFF8ECA1674B24
:1008A000674C2B604FF0000B1020C5F814B0A5F872
:1008B00004B0A5F806B000F0D9F906F1180201213C
:1008C0003046FFF7D3FD5F4B33600AF12802042165
:1008D0005046C6F81CB0FFF7C9FD4FF480305A4BA4
:1008E000CAF800304FF0010E04F1180284F809E054
:1008F0005B465946C4F8009084F808B0C4F80CB0C0
:100900002261CAF81800CAF81C00CAF82000CAF808
:100910002400A64601E0DEF8102042F82310627A97
:10092000474801339A42F6DCD8F80020474B0AB911
:1009300079E01A465369002BFBD154614FF000084F
:10094000DFF84891424BC4F81480A4F80480A4F85E
:1009500006803B48236000F071FB09F1180248460D
:100960000121FFF783FD3B4B3B4AC9F8002047F6C6
:10097000FF704FF400410122A9F81E001846A9F8A3
:1009800020105A7283F8088083E88004C3F80C8032
:1009900003F000FA314B184683F8088083E86000C2
:1009A00083F80980C3F80C8003F0F4F92C4B184647
:1009B00083E8200283F8088083F80980C3F80C805C
:1009C00003F0E8F9274B184683F8088083E84004D1
:1009D00083F80980C3F80C8003F0DCF9224B184639
:1009E00083F80880C3F800A05C6083F80980C3F82E
:1009F0000C8003F0CFF91D491D4A1E4B0C6812688C
:100A00009A819C8241460F221B4801F07DFC1B4AC3
:100A10001B4B12680192019A1A6003B0BDE8F08F77
:100A2000C8F8005038E7186088E700BF34A1FF1FFE
:100A3000F4A4FF1F68EB0000C4A1FF1F44EB0000FB
:100A4000B8A4FF1F38EB000050EB000038AAFF1FCE
:100A50005CEB00006CA1FF1F2CEB000080A1FF1FCE
:100A60005CA1FF1FD4A4FF1FE4A4FF1F1C94FF1F61
:100A70001894FF1F0094FF1F90A1FF1F38A9FF1FAC
:100A800030A1FF1FC8E8000080A4FF1FA0A1FF1F26
:100A900070B50021064603F04FF9C0B1B6F91E400B
:100AA000B6F92010031D00F5827533F9022B94422C
:100AB000A8BF14469142B8BF11469D42F5D8012304
:100AC000F48331843377BDE8704003F0F7B870BD2C
:100AD00070B50021054603F02FF9E0B1EB69B3B121
:100AE000012B064618D003F09DF8044670B1021D94
:100AF0008023311D05F1200005F024F8284600224E
:100B0000214603F0FFF8204603F0D8F83046BDE850
:100B1000704003F0D3B870BD28463146002203F080
:100B2000F1F83046BDE8704003F0C8B8164A174BDC
:100B300011681748096912790270994209D2154A59
:100B40001278F2B1144A4FF08041116003F1800035
:100B500001E01846803B114A12688AB110B4104C6B
:100B60002188402928BF402102EB410240312180E9
:100B7000023233F8021B22F8021F9842F9D810BC47
:100B8000704703F18000E6E754A5FF1FA08AFF1F0E
:100B90001F80004060A5FF1F08E200E050A5FF1F76
:100BA0000CA5FF1FF8B5044603F03CF8014672B6E9
:100BB000254B1A887F2A0AD800283FD0234C226868
:100BC000002A3DD062B6BDE8F84003F077B81F4870
:100BD000002205681A80016062B61D4B03F14000D7
:100BE00053F8041F98420A44FAD11A4B1F68D20ADC
:100BF000291D05F5827600200B8818449B1A03F303
:100C00000F0321F8023B8E42F6D8134A134B42F8E9
:100C1000270001373B40002B0E4E0ADB20462946B9
:100C20000022336003F06EF82846BDE8F84003F078
:100C300045B8013B63F00F030133EFE762B6F8BD3F
:100C400020601A8062B6F8BD0CA5FF1F50A5FF1FDB
:100C50000CA5FF1F5CA5FF1F10A5FF1F0F00008044
:100C600010B5044603F06CF9204610BDF8B50646F1
:100C7000102001F081FD022001F058FD082001F054
:100C8000AFFD4FF480640025304601F0DFFD013CEC
:100C90000544F9D14F4BAD0A03F1400243F8045F1C
:100CA0009A42FBD14C4B1B685B0208D54B4B1A6830
:100CB00048F6A273134048F6A272934277D0464991
:100CC000464A0B68464F474D4748484C43F480031B
:100CD0000B604FF0010E40F23F4648F6A37140F220
:100CE0000113C7F800E02E60116014600360404AF1
:100CF000404D136843F0440313602846012103F07C
:100D0000BBF82B683C4A1978102119706FF04F011D
:100D1000587859700321987899704021D878D97003
:100D20006FF07F001A619A7D98750022D97DDA757F
:100D30004FF0FF31012402261A715A715A729A72C9
:100D4000DA721A735A739A73DA735A751A769C7137
:100D5000DC711E721E7559769976D976997F29793C
:100D6000987701F18041D87FDA7701F504310620C8
:100D70001E7F1877A8205E7F5A770A70087003F0EC
:100D800021F82A791D4B1E4E187053119B0003F158
:100D9000604302F01F051B49327003F5614302F105
:100DA0001000AC40184D41F820501C60F8BD0D4BB0
:100DB0001A6840F23F439A4281D1094B1B68012BCC
:100DC0007FF47DAF084B1A6840F201139A427FF41A
:100DD00076AF8CE70CA5FF1F3C8004400060034009
:100DE0000C6003400460034010600340A28F0100C8
:100DF00020B0034054A5FF1F208AFF1F60A5FF1FDE
:100E00001B800040008EFF1F2D0B0000024A03498B
:100E1000034805F0D7BF00BFFC93FF1F610C000023
:100E200054A5FF1F38B5074D074C08482A462146F0
:100E300005F0C8FF2A4621460548BDE8384005F0C0
:100E4000C1BF00BFFC93FF1F610C000064A5FF1F22
:100E50006CA5FF1F024A0349034805F0B3BF00BF5A
:100E6000FC93FF1F610C000074A5FF1F024A034999
:100E7000034805F0A7BF00BFFC93FF1F610C0000F3
:100E80007CA5FF1F2DE9F8434FF00008064600F14E
:100E90001805474641463046002F4FD002F04CFF20
:100EA000F0B12C68B4F5803F07F1040100F1040EA5
:100EB00007F5827C27D05EF8042B34FB02F334FB69
:100EC00012F903F30F0209F30F03C2EA03430A689E
:100ED00093FA12F341F8043B8C45ECD802F0EEFE95
:100EE00008F10108B8F1040F05F10405D2D1002F73
:100EF00040D030463946002202F004FF3846BDE8B3
:100F0000F84302F0DBBE07F10C0100F10C0451F8CC
:100F1000083C54F8082C93FA12F341F8083C54F8B2
:100F2000042C51F8043C93FA12F38C4541F8043C2C
:100F300004F1080401F10801E9D8CFE702F008FF45
:100F400007460028CCD02868B0F5803FC8D0391DAE
:100F500007F582740B6830FB03F230FB13F302F3E6
:100F60000F0203F30F03C2EA034341F8043B8C4230
:100F7000F0D8B5E7BDE8F88310B5002102F0DCFE3B
:100F800070B172B60A4B1A6872B10A490C6844B162
:100F90001C60086062B61046BDE8104002F08EBECC
:100FA00010BD086062B610BD186062B610BD00BF0B
:100FB00094A5FF1F84A5FF1F38B5194B19491A685E
:100FC000194C12681B79194D0B70A242286836BF64
:100FD0002246A4F5807202F58074C8B1011D31F972
:100FE000023B03F5FF437F331B1122F8023B94427F
:100FF000F5D802F063FE0E4B0022196829601A60D2
:101000000C4B1B781BB10C4B4FF080421A6038BD63
:1010100040F2FF7322F8023B9442FBD8F0E700BF96
:1010200088A5FF1F1F800040208CFF1F94A5FF1F75
:1010300084A5FF1F90A5FF1F08E200E0F8B501217D
:101040005148524D02F018FF514A5249136880200E
:1010500043F480531360002408702C80012008346E
:1010600001F02CFEA3B2B3F5006F1CB2F5D14A4BD0
:101070001B685B0208D5494B1A6848F6A2731340F7
:1010800048F6A27293426DD04349444A0B68444FDC
:10109000444D4548454C43F480030B604FF0010E2E
:1010A00040F23F4648F6A37140F20113C7F800E052
:1010B0002E60116014600360334D3D492B6800229F
:1010C0001960197C1A746FF03F01587C59740C2117
:1010D000987C99744021D87CD974997D9A750124A3
:1010E000D97DDC7502204FF0FF316FF001065A7197
:1010F0005A729A72DA721A731A755A751A765A7681
:101100009A76DA765E739C71DC7118711872997335
:10111000D973997F29799A7701F18041D87FDC775B
:1011200001F5043106201E7F1877B0205E7F5A77C4
:101130000A70087002F046FE2A791E4B1E4E187087
:1011400053119B0003F1604302F01F051B493270ED
:1011500003F5614302F11000AC40194D41F82050F5
:101160001C60F8BD0F4B1A6840F23F439A428BD186
:101170000B4B1B68012B87D10B4B1A6840F20113F4
:101180009A4281D198E700BF88A5FF1F00C00C409C
:101190002C80044021C00C403C800440006003408F
:1011A0000C6003400460034010600340A28F010004
:1011B000208BFF1F90A5FF1F1B800040008EFF1F8C
:1011C000B90F0000044A137802290CBF03F0BF03D3
:1011D00043F040031370704721C00C40024A03499A
:1011E000034805F0EFBD00BFFC93FF1F610C00003A
:1011F00088A5FF1F024A0349034805F0E3BD00BF6D
:10120000FC93FF1F610C000098A5FF1F024A0349D1
:10121000034805F0D7BD00BFFC93FF1F610C000021
:10122000A0A5FF1F024A0349034805F0CBBD00BF3C
:10123000FC93FF1F610C0000A8A5FF1F024A034991
:10124000034805F0BFBD00BFFC93FF1F610C000009
:10125000B0A5FF1F024A0349034805F0B3BD00BF14
:10126000FC93FF1F610C0000B8A5FF1F90F826300B
:1012700003B970472DE9F04F83B0064602F0D2FC67
:101280008346B0B196F82600B369B6F92420C0B2FF
:10129000032874D010D9822800F03E81832800F002
:1012A0000481812859D0584602F008FD002386F8B1
:1012B000263003B0BDE8F08F012800F0D38002286B
:1012C000F1D1A34917460BF1140003F1400453F880
:1012D000042BD5B2C2F3072C31F9155031F91CC0DB
:1012E00020F80E5CC2F3074E120E31F91EE031F900
:1012F000122020F80ACC2F4465447F106D1020F88E
:10130000107C20F80C5C0CEB0E0702EB0E057F1036
:101310006D10A34220F8087C20F806EC20F8045C4D
:1013200020F8022C174600F11000D0D14021336A7A
:10133000B2848B428CBF5B1A00233046B4618CBFF1
:10134000336286F826300022594602F0DBFC58460C
:1013500003B0BDE8F04F02F0B1BC0BF1080003F59B
:10136000807453F8041B20F8041CA3424FEA114177
:1013700020F8021C00F10400F3D18021D7E7744962
:10138000009094460BF1240503F12004CDF804B03D
:1013900053F8042B5FFA82FEC2F3072731F91EE0EF
:1013A00031F9177025F81AEC0EEB4E0AC2F307401C
:1013B0000CEB0A0BBA4431F9100025F8127C07EB4C
:1013C00047094FEAAA0A25F818AC120E0EEB090AD3
:1013D00000EB40084FEAAB0B4FEAAA0A31F91220A2
:1013E00025F81CBC814425F814ACDDF800B025F8C4
:1013F0000A0C07EB080A4FEAA9094FEAAA0A25F8DE
:10140000109C25F80CAC1CFB0BE900EB020AF44421
:101410009044BE44074412FB0B004FEA6C0C4FEAA9
:10142000A8084FEAA9094FEA6E0E7F104FEA6A0A30
:101430008010A34225F81ECC25F8022C25F8088C34
:1014400025F8209C25F816EC25F80E7C25F806AC2E
:1014500025F8040C944605F1200599D1DDF804B077
:10146000202164E73A490BF10C0503F1800453F89D
:10147000040B5FFA80FCC0F3072EC0F30747000E91
:1014800031F81CC031F81EE031F8177031F8100047
:1014900025F808CCA34225F806EC25F8047C25F8AD
:1014A000020C05F10805E2D167E715460BF11400BF
:1014B00003F140044FF0030E53F8042B11B201EB7B
:1014C000410705EB070812144FEAA80815FB0E1C8C
:1014D00020F80A1C0D4420F80C8C174401EB02087C
:1014E00012FB0E116D10BF104FEAAC0C4FEA6808EA
:1014F0008910A34220F80E5C20F8022C20F8087C0A
:1015000020F810CC20F8068C20F8041C154600F1B9
:101510001000D1D120210AE710460BF10C0103F194
:10152000800453F8042B17B212143844D519401014
:101530006D10A34221F8080C21F8067C21F8045C08
:1015400021F8022C104601F10801EAD1EEE600BFB5
:1015500024E90000002280F826200B6882840431F0
:1015600023F07F421B0E8161C161026280F8263048
:10157000704700BF084B094A9A6302210022196193
:101580005A719A719A721A7383F8302083F83C204A
:1015900083F83E20704700BFDCA5FF1F74EB0000FE
:1015A00008B50121007901F06FFB0E4B1A7802B9E2
:1015B00008BD0D4A127800211970002AF8D0D00712
:1015C00003D50A490A4B09681960910703D50749F1
:1015D000084B496819605307EAD5044A064B9268DC
:1015E0001A6008BD40A6FF1FD8A5FF1FCCA5FF1F8E
:1015F00000E100E004E100E008E100E0F8B5038963
:1016000040F20122591C93420746018114D80D4A29
:101610004FF000461546FF2440F20220D662546384
:10162000D36A002BFCDA8BB28342A96B01D0591C20
:10163000F4E740F203233B813846FFF7B1FF002374
:10164000BB71F8BD00C00240204B1A781AB1007976
:10165000002101F019BB70B41D491E4A0C781268B4
:1016600001251D7004B372B60B78DC0707D51A4C40
:101670001A49266809681A4D314029602160990786
:1016800007D5184C154926684968154D3140216029
:1016900069605B0707D51449104B0D689B68104CB7
:1016A0002B400B60A36062B6104BD968914207D003
:1016B0000F4C1C600F49DA6042F080441C611960D5
:1016C0000079002170BC01F0DFBA00BF40A6FF1F07
:1016D000D8A5FF1F3CA6FF1F80E100E0C0A5FF1FAB
:1016E000CCA5FF1F84E100E088E100E000C00240DB
:1016F00001401F0000001F80F0B4114C114A236804
:1017000082B01746009300984FF0004680B2FF2544
:10171000D6625563D36A002BFCDABB6BDBB2FF2BBE
:101720000AD023680193019B9BB21B1A8B42EFDB0B
:10173000002002B0F0BC7047012002B0F0BC70473E
:1017400038A9FF1F00C00240F8B5837904460D4652
:101750001646002B4CD12046FFF776FF4FF49671CA
:101760002046FFF7C9FF244B4FF0004245F04001EF
:10177000DA621A465963D36A1F49002BFBDA8B6B76
:101780000F4618204FF0004226FA00F3DBB2CA627F
:101790004B63CB6A002BFCDA083810F1080FBB6BE7
:1017A000F2D11DB3082D0CBF8722FF22124B4FF040
:1017B0000041D96219465A63CB6A0F4A002BFBDA03
:1017C000936B164600274FF00045FF21D562516309
:1017D000D36A002BFCDAB36BD8B21B06E07200D4DC
:1017E000F8BD0137B7F5807FF0D1F8BD9522DDE770
:1017F000FFF704FFAFE700BF00C00240F0B5164C92
:10180000164A236883B01746009300994FF00046AC
:1018100089B2FF25D6625563D36A002BFCDABB6B15
:10182000DBB2FF2BC3720ED123680193019B9BB2E5
:101830005B1AB3F5967FEDDD0F234371FFF7B0FE22
:10184000002003B0F0BDFE2B02D00D234371F5E75D
:10185000012003B0F0BD00BF38A9FF1F00C0024047
:10186000F8B51E461344B3F5007F054610DC8379B6
:10187000174693B92B7B2960032B18BF49020A46F0
:1018800028461121FFF760FF044668B103236B71FE
:101890002846FFF785FE0020F8BD03688B42E9D19A
:1018A0000089824209D2E5E72846FFF7A7FF002812
:1018B000EED001232C812046AB71874210D91C4900
:1018C0004FF0004E0C46FF23C1F82CE04B63CA6A70
:1018D000002AFCDA013080B28742A26BF4D12F815A
:1018E000A6B1069B1249701E13FA80F08E46013B8A
:1018F0004FF00047FF24CF624C63CA6A002AFCDA2B
:10190000DEF8382003F8012F8342F4D12B89AA7A1C
:1019100033449BB22B8112B1B3F5007F01D3AB7975
:101920000BB90120F8BD2846FFF768FE0120F8BD7D
:1019300000C0024000B583B04FF400730092002253
:10194000FFF78EFF03B05DF804FB00BFF8B5254B31
:101950004FF00044DC621C465963E36A2149002BC6
:10196000FBDA8B6B0F46541E02F2FF154FF0004658
:1019700014F8013FCE624B63CB6A1A4A002BFBDAA4
:10198000AC42BB6BF4D14FF00041FF23D162114652
:101990005363CB6A134A002BFBDA4FF00041FF235D
:1019A000946BD16211465363CB6A0E4A002BFBDA6B
:1019B0004FF00041FF23946BD16211465363CB6A11
:1019C000084A002BFBDA936BDBB203F01F02052AF7
:1019D000C37205D011234371FFF7E2FD0020F8BD6B
:1019E0000120F8BD00C0024070B5044631B9122391
:1019F00043712046FFF7D4FD002070BD037B032B0D
:101A000018BF490215460A461821FFF79DFE0646F3
:101A100030B1042320466371FFF7C2FD002070BD82
:101A20002A46FE212046FFF791FF0028E1D04FF41F
:101A300016712046FFF760FE10B915236371D8E7D1
:101A400032460D212046FFF77FFE98B90B4B4FF031
:101A50000041FF22D96219465A63CB6A074A002B1C
:101A6000FBDA936B13F0FF0F04D12046FFF798FDCC
:101A7000012070BD14236371BBE700BF00C00240AA
:101A8000014B024A1A6070473CA6FF1F0110013843
:101A900038B590F90530002B03DBBDE8384000F085
:101AA00091B904460121006900F0B6F9F8B1257D2D
:101AB000104B13EB45151AD0A3790F4A012B9CBF8D
:101AC000A369EB61E36912686B831B0CAB8232B1D3
:101AD00005F1160105F1180090472B8B6B82637995
:101AE00003F07F036371BDE8384000F06BB900205C
:101AF00038BD00BF50A6FF1F44A6FF1F10B500F160
:101B0000080204460121006A00F024FA50B1E3699A
:101B10003BB96379A268E26163F07F0363710120DE
:101B200010BD012010BD00BFF8B5837913B18269E3
:101B30008A4201D20020F8BD022B0F4605461AD07A
:101B400007B32B6AE9681C7C4A1E04F109037C1E5A
:101B5000DA40DC40A24211D9EB69AB6005F108061E
:101B600006E0A968286A00F0BDF9013C0028E1D030
:101B70003246002CF5D1EF600120F8BD0029EBD0F2
:101B8000A41AEBE7AF60EF600120F8BD2DE9F04F3C
:101B90008B46817985B001298046019206D00123C8
:101BA00088F80430002005B0BDE8F08F4279910735
:101BB000F5D553070AD5D8F80C40D8F818108C4240
:101BC00000F0C680FFF7B0FF0028E8D0019BD8F8EE
:101BD0000C40002B00F0AF80DFF8C891DFF8C8A1FF
:101BE000019F3AE0002C43D1D8F80810002940F0BA
:101BF0008380D8F81C20002A00F09280C8F80820C2
:101C0000C4F50076B6B2BE4239D890F810E041690A
:101C1000023A02FA0EF20D44B6F5007F154435D1B2
:101C2000DAF80020954204BF4FF0FF32CAF80020D6
:101C3000584A294610685A46FFF7D6FE0028AED00B
:101C40000BF5007B4FF40074D8F80C20BF1B144434
:101C5000BFB2C8F80C40002F6DD0D8F8200005792D
:101C6000013D05EA542515F0FF05C4F30804B9D079
:101C7000C4F50076B6B2BE42D8F80820C5D9067CB5
:101C80004169023AB2400D4415443E462CB9D8F899
:101C90000C10D8F8182091421BD22846012100F0E0
:101CA000BBF800283FF47BAF4C4404EB060E7445B0
:101CB00020D00BF1FF31621E0EF1FF3511F8010F3C
:101CC00002F8010F9542F9D1C4EB0E0EF3443446ED
:101CD000BAE700F077F800283FF461AF2E49CAF860
:101CE00000500A784C4404EB060E42F001027445A1
:101CF0000A70DED13446A7E703AA00F0F3F8002803
:101D00003FF451AFD8F82000244B90F82060039A9C
:101D10004FF6F871102E18BF19468A42FFF46EAFC5
:101D20004046FFF7EBFE00283FF439AFD8F820001B
:101D3000D8F8082064E7D8F81830A3420DD298F8F4
:101D40000520C8F8184042F0800288F805200FE00E
:101D5000019B002B7FF440AF0AE0114B98F805205F
:101D60001B682BB1019B1BB142F0800288F8052053
:101D700012070AD598F80630002B3FF410AF404602
:101D8000FFF786FE00283FF40AAF019805B0BDE8D2
:101D9000F08F00BF4CA6FF1F50A8FF1FF8FFFF0FDA
:101DA00044A6FF1F50A6FF1F4097FF1F00B583B03A
:101DB00002AB012203F8011D1946FFF7E7FE03B04D
:101DC0005DF804FB70B50F4C23780BB9012070BD92
:101DD0000D4B0E4D196828680D4AFFF705FE70B1CE
:101DE0000C4E316819B900232370012070BD28689A
:101DF000074AFFF7F9FD10B100233360F3E7002035
:101E000070BD00BF50A8FF1F4097FF1F4CA6FF1FCB
:101E100050A6FF1F48A6FF1F70B50D4D2B688342CB
:101E20000E460ED00446FFF7CDFF08B9002070BD66
:101E3000084B094A18682146FFF77CFD0028F5D0B9
:101E40002C60064B197831431970012070BD00BF1A
:101E50004097FF1F4CA6FF1F50A6FF1F50A8FF1F53
:101E6000F8B590F82030C469102B1A4B05460E4681
:101E700017461B6816D004EBD1149C4216D106F00D
:101E80007F06154A42F826701449287E0A780128F0
:101E900042F001020A7018D9A968114A0B44136074
:101EA0000120F8BD04EB11249C4208D000212046FB
:101EB000FFF7B2FF50B195F82030102B07D1F6B2E2
:101EC000054A234622F81670DEE70120F8BD2346B6
:101ED000D5E700BF4097FF1F50A6FF1F50A8FF1F68
:101EE00048A6FF1FC36801338B4218D370B590F822
:101EF0002030102B154B044616460D46C0691B6852
:101F00000FD000EBD11098420FD105F07F01104B9C
:101F100053F8213023F070433360012070BD00205E
:101F2000704700EB1120984207D00021FFF774FFA3
:101F300050B194F82030102BE7D1E9B2044B33F8BC
:101F400011303360012070BD002070BD4097FF1F2D
:101F500050A6FF1F2DE9F04F176883B06FB301370C
:101F60004FF0000AC36803F1010813B38B4606461D
:101F700091463C46002505E01C461F46F3680135A6
:101F8000AB4216D9A04538BF0224214601AA3046EB
:101F900038BF2746FFF7A6FF631CD91B48B1019A3B
:101FA000002AE9D18B4510D01C46F3680135AB42BD
:101FB000E8D8002003B0BDE8F08FA1F1010ABAFA19
:101FC0008AFA07684FEA5A1ACCE7012CF1D9F3686C
:101FD00001339C42EDD86FF0704221463046FFF746
:101FE0003FFF0028E5D0A74214D2013C012CE0D9E4
:101FF000F36801339C42DCD8621C21463046FFF76F
:102000002FFF0028D5D0A74204F1FF3402D0012CC5
:10201000EED1CEE7D9F8001059B10129C9D9F3683A
:1020200001339942C5D83A463046FFF719FF0028D8
:10203000BFD0C9F80070BAF1000F01D00137376086
:102040000120B7E790F8392090F83800101A70474F
:1020500090F8383090F839209A4205D95A1C034438
:1020600080F83820187E70474FF0FF30704700BF6F
:1020700090F8383090F839209A4286BF1B18187EA5
:102080004FF0FF30704700BF704700BFB0F85E30C0
:102090006BB190F85D30202B07D8C218013380F85F
:1020A0005D30012082F83B1070470123037100204E
:1020B000704700BF38B50546B0F85E0090B195F89E
:1020C0005D301446C3F1210294420CD805F13B0067
:1020D0001844224600F07EF995F85D30234485F8D7
:1020E0005D30204638BD012014462871EEE700BF60
:1020F00010B50269D378DBB2D90604463DD510216C
:102100005806D17038D503F0040303F0FF02002B0A
:1021100051D03D49626E00230B7084F85D30002A77
:102120005BD0904794F85D30002B56D02369D022C5
:102130009A70236994F83B201A712369012284F86C
:102140005C200222DA7010BD304B84F860009C42A3
:102150004AD02F4B9C4252D094F8391013791F2942
:10216000DBB207D82848007820B16018013184F824
:10217000391003760223D37010BD5906C3D4917869
:1021800001F0100101F0FF000029DDD013F0010380
:102190001ED194F85C1094F85D00884281BF4B1CFE
:1021A000091984F85C3091F83B3013712369D0220F
:1021B0009A702269DEE7236984F83920C0229A7078
:1021C0002369114A1979012111700222DA7010BDB8
:1021D000C023937022691379CCE70122002384F88D
:1021E0005D2084F83B30A1E7626994F861300949C9
:1021F00013440322187A00F075FC2269ACE7626987
:1022000094F861300449F3E7C0A8FF1FC4A8FF1F7A
:1022100054A8FF1F79220000852200000369DB78A3
:1022200003F0200373B190F860300133DBB2012B6F
:1022300080F860301AD9426990F861301344187AF6
:1022400000F0CCBC70B5426903F0FF0590F8613036
:1022500013440446187A00F0C1FCA36E5BB184F805
:10226000385094F83900BDE87040184790F85F3056
:10227000002BE0D0704770BD0148FFF7CFBF00BF13
:10228000C4A8FF1F0148FFF7C9BF00BF54A8FF1F24
:102290000148FFF72DBF00BFC4A8FF1F0148FFF78B
:1022A00027BF00BF54A8FF1FF0B41049104B114ABC
:1022B0000A6100224FF47A740F4F1048104E114DEE
:1022C0000A710A7381F8612081F862201A711A7309
:1022D00083F8612083F862204F618C609C601E61EE
:1022E0005D6108601860F0BC704700BFC4A8FF1FA4
:1022F00054A8FF1F006006407CEB0000C4EB000008
:10230000007006409CEB000030B5094B426083B082
:102310001B6801930D46019B036000210446816008
:10232000284600F0B7FC20732046657303B030BD2B
:1023300038A9FF1F30B5044683B0407B00F0AAFCEB
:10234000237B834210D00A4A256813680093009BC0
:1023500061685B1B8B4207D313680193019B207359
:102360000120236003B030BD002003B030BD00BFAA
:1023700038A9FF1F30B583B00446FFF7DBFFB0B9C3
:10238000A3681BB90023A37303B030BD0B492568B4
:102390000A680092009A521B9342F3D80B6801938B
:1023A000019BA06001202360A07303B030BD012019
:1023B0000023A360A07303B030BD00BF38A9FF1F86
:1023C000837B23B1007BB0FA80F040097047184648
:1023D000704700BF844641EA000313F003036DD148
:1023E000403A41D351F8043B40F8043B51F8043BD8
:1023F00040F8043B51F8043B40F8043B51F8043BDF
:1024000040F8043B51F8043B40F8043B51F8043BCE
:1024100040F8043B51F8043B40F8043B51F8043BBE
:1024200040F8043B51F8043B40F8043B51F8043BAE
:1024300040F8043B51F8043B40F8043B51F8043B9E
:1024400040F8043B51F8043B40F8043B51F8043B8E
:1024500040F8043B51F8043B40F8043B51F8043B7E
:1024600040F8043B403ABDD2303211D351F8043B1E
:1024700040F8043B51F8043B40F8043B51F8043B5E
:1024800040F8043B51F8043B40F8043B103AEDD2CD
:102490000C3205D351F8043B40F8043B043AF9D21E
:1024A000043208D0D2071CBF11F8013B00F8013BF1
:1024B00001D30B8803806046704700BF082A13D3FE
:1024C0008B078DD010F003038AD0C3F10403D21A16
:1024D000DB071CBF11F8013B00F8013B80D331F84A
:1024E000023B20F8023B7BE7043AD9D3013A11F8CA
:1024F000013B00F8013BF9D20B7803704B78437035
:102500008B78837060467047374A384913681B06DA
:10251000FCD40B6813F08003F8D172B634490A7802
:10252000002A5FD0334A3448F0B4344C1768066848
:102530002568D4680C303E44143200681268304F6D
:1025400035442C4420440244C2F34E022D4E2E4802
:102550002E4D2F4C42F400423A60376806682D68D1
:102560002C4A24680C303E44006812682A4F3544D7
:102570002C4420440244C2F34E02284E2848294DE0
:10258000294C42F400423A60376806682D68274AB1
:1025900024680C303E4400681268254F35442C44B2
:1025A00020440244C2F34E02224E2348234D244CC1
:1025B00042F400423A60376806682D68214A246870
:1025C0000C303E440068126835442C4420440244D8
:1025D000C2F34E021C4842F4004202600B7062B625
:1025E000F0BC704762B6704724B0034024B00B4083
:1025F00031A9FF1F38B003403CB0034040B0034056
:102600002CB0034058B003405CB0034060B00340BE
:1026100064B003406CB0034030B0034038B00B40AE
:102620003CB00B4040B00B4044B00B404CB00B40B2
:102630002CB00B4058B00B405CB00B4060B00B406E
:1026400064B00B406CB00B4030B00B4030B4294844
:10265000294A2A4B2A4D6024E121047011701B780D
:10266000284C082B30D00A2B2748284937D00C2B70
:102670000CBF35223D2212232A60236002600B60CA
:10268000234B24491B78244ABBB101230B60136000
:10269000224B23491B78234A012B26D9042B0FD91F
:1026A000082B1ED9102B94BF862387230B60136041
:1026B0001D4B01221A7030BC70470B601360E7E7B6
:1026C00084230B601360F3E700F58E200F49083078
:1026D000012213232A60236002600B60D0E73922B5
:1026E000F7E785230B601360E2E780230B6013603C
:1026F000DEE700BF00400740014007404497FF1F4E
:1027000008B003400CB0034008B00B400CB00B40C5
:1027100034A9FF1F20B0034020B00B404597FF1F96
:1027200024B0034024B00B4031A9FF1F68B10E4A0A
:102730001378C3B90D4909780120107019B10C49FB
:102740000C4A0B601360FFF781BF074B1A7852B138
:10275000064A18701378002BF5D0054A054B106017
:102760001860FFF773BF704734A9FF1F31A9FF1F1F
:1027700024B0034024B00B400C2830B417D91023E8
:10278000984228BF18461C46104A114D1178181A55
:102790008C42287018D00F4913700B7823B10E4962
:1027A0000E4A00230B60136030BCFFF74FBF0A28AE
:1027B00002D90C231C46E7E7082802D90A231C4645
:1027C000E2E708231C46DFE730BC70474497FF1F51
:1027D00030A9FF1F31A9FF1F24B0034024B00B40D4
:1027E00010B5174B1B780446A3B9012C16D9042C3D
:1027F0000AD9082C134B1DD9102C15D907221A60A1
:10280000114A2023137010BD0E4A042313600E4A90
:10281000137010BDFFF778FE012CE8D8094A002399
:102820001360094A137010BD06221A60064A10236D
:10283000137010BD05221A60034A0823137010BDDF
:1028400031A9FF1F24B003404597FF1F28282FD828
:10285000334B2DE9F0411E5CFF2E2BD0314B1B7802
:10286000002B2AD132062CD472B62F4D2F4C2F4676
:10287000012326602B7062B672B623681B060CD447
:102880003B781BB9F4E72B78002BF1D062B601F04E
:10289000D9FC72B623681806F5D5254B1B680022B3
:1028A0002A7062B6234A107843FA00F0BDE8F0813E
:1028B000002070470020BDE8F081FFF725FE3206BA
:1028C000D2D572B61C4DDFF87C801C4C06F0400758
:1028D000FFB206F03F06D8F80030DFB123F0100356
:1028E000C8F8003001232660134A2B7062B672B616
:1028F000236819060CD413781BB9ECE72B78002B4E
:10290000E9D062B601F09EFC72B623681B06F5D5CD
:102910000B4BC3E743F01003C8F80030E2E700BFF9
:10292000DCEB000031A9FF1F33A9FF1F00B00340FB
:1029300010B0034030A9FF1F32A9FF1F00B00B40A9
:1029400010B00B400CB00B40024A13680133136007
:10295000704700BF38A9FF1F08B5104C08E0236876
:1029600059050DD423681A050FD42368DB0411D44C
:1029700023685803F3D500F017FB23685905F1D5F8
:1029800001F0D6FF23681A05EFD502F073FB236828
:10299000DB04EDD502F026FEEAE700BF34800440F8
:1029A00008B5FFF7D9FF00BF014B10221A8070470E
:1029B00000200540704700BF094908B50B6830B1D9
:1029C0006A461844A2F58052904202D20860184626
:1029D00008BD04F003FA0C2303604FF0FF3008BD7C
:1029E0004897FF1FFEE700BFEFF3138070B9EFF3C6
:1029F00010836BB9EFF305825AB94FF48070EFF38F
:102A000011832BB1984228BF184670474FF0FF3012
:102A100070470F2A01D81846F1E7014BD05CEEE76A
:102A2000F0E300E0704700BF10B40F4B53F83020C4
:102A300092F880422CB1012369B182F8803010BC39
:102A4000704703EBC0035B681A6841B922F00202C9
:102A50001A6010BC704782F8003110BC704742F019
:102A600003021A6010BC704708EC00001C4A02EB1D
:102A7000C00301295B6811D004291BD052F8300033
:102A8000002280F8802229B1022920D0032922D0F7
:102A90001A6070474FF480721A60704752F8300025
:102AA0004FF4A27280F880121A601A6822F0200295
:102AB0001A60704752F830104FF4A272012081F86A
:102AC00080021A601A6842F020021A60704740F2D1
:102AD00003121A6070474FF481721A60704700BF8A
:102AE00008EC0000212817D8F8B5042A13D8DFE82D
:102AF00002F0494C4F1446002C4872B6236823F468
:102B0000702343F08072C4F384011643236040F8BD
:102B10002150266062B6F8BD70474FF41026244B52
:102B200003EBC0030D465C68216811F4E06134D00A
:102B3000204B214A2149C3F89C2104F140422048FE
:102B4000C3F8A411A2F592211E4FC3F8A0017C295D
:102B50001D48C3F8A871C3F8AC01CDD9A2F59423E0
:102B60007C2B18D9A2F596237C2B19D9A2F5982392
:102B70007C2B17D9A2F59A227C2A15D9F8BD4FF4DF
:102B80003026CCE74FF40026C9E74FF44026C6E7CD
:102B90004FF42026C3E70D48AFE7FFF767FFC7E70D
:102BA0000B48AAE70B48A8E70B48A6E74C97FF1F7E
:102BB00008EC0000008EFF1FD193FF1F7993FF1FC9
:102BC000A593FF1F4D93FF1F2193FF1F8497FF1FA6
:102BD000D497FF1F0498FF1F2498FF1F1A4B03EB85
:102BE000C00010B4426802F14043A3F592217C2951
:102BF00005D9A3F594217C2913D8144900E0144980
:102C000072B61368134C23F08773C2F3840023F465
:102C1000803343F08073136041F8204062B610BCEB
:102C20007047A3F596217C2909D9A3F598217C2921
:102C300007D9A3F59A237C2BF1D80749E0E7074988
:102C4000DEE70749DCE700BF08EC00008497FF1FC0
:102C50004C97FF1F252A00002498FF1FD497FF1FC1
:102C60000498FF1F30B4054B054D064C002210217F
:102C70001A602A602060196030BC704714D003408D
:102C800004D0034000D00340212801D8FFF7CCBE78
:102C9000704700BF212806D8044B53F8303093F812
:102CA0000002C0B270470020704700BF08EC00006F
:102CB000212801D8FFF7DABE704700BF2DE9F8439D
:102CC000054672B6204F214B214A1B683C681268AA
:102CD00062B6520102D5322B88BF013495B3C3F5D9
:102CE000BB331C4EDFF86490DFF86480FF334FF491
:102CF0007A72A6FB031302FB04F404EB931472B67E
:102D0000D9F800103A68D8F800E062B6C1F5BB33D4
:102D1000FF33A6FB03031EF0806FC4EB93134FF445
:102D20007A7002D0322988BF013200FB0233B3F53A
:102D30007A7F04D3013D05D004F57A74DFE701F012
:102D400081FADCE7BDE8F88338A9FF1F18E000E04E
:102D500004ED00E0ABAAAAAAF8B52D4B2D49DFF887
:102D6000D0E0DFF8D0C02C4E2C4D2D4C2D4A2E4FEC
:102D70004FF4000018604FF0807018604FF0007042
:102D800018604FF0806018604FF0006018600020FD
:102D9000086028234BF6FF71CCF80010CEF8003005
:102DA000336013602B6023603B60B362936209223F
:102DB00045F8242CC4F8D80F05F57F65C7F8D41F53
:102DC00007F5FF2707F5FA67C6F8F83F2B6006F509
:102DD000FF26C4F8D42F05F5FD2504F5FF2438603F
:102DE00006F2F4761148316005F5FF6504F5FD64DF
:102DF0002B6023600260FFF729FC3220FFF75EFFA3
:102E000000F0FCFC4FF4AF70BDE8F840FFF756BF90
:102E100008E100E004800340148003402480034064
:102E20002C8003401C8003403480034000800B4012
:102E30000C80034008800340431E032B14D872B655
:102E40000A4951F8230068B170B4094C058834F878
:102E50001320466841F82360521B24F8132062B601
:102E600070BC704762B670470020704794A9FF1F7E
:102E70006CACFF1F013803280BD872B6074B53F810
:102E8000203043B100205B680130002BFBD162B6DB
:102E90007047002070471846F9E700BFE8A9FF1FF8
:102EA000F0B472B61A491B4E012311F8014B194FA9
:102EB0009A00240742F0010505D556F8324064B166
:102EC00056F83520BAB10133052BEED162B6124B5C
:102ED00000221A70F0BC00F00DBD0F4C0F4D217890
:102EE00047F8325007EB431308304A1E58602270EF
:102EF00062B6F0BC70470849094B0A7847F835308C
:102F000007EBC5030830013A58600A7062B6F0E773
:102F10004CED00000080FF1F11AAFF1F8800400039
:102F2000C8004000431E032B1DD81B4A400140F03F
:102F3000100030B4104472B6184CE25C032A1BD85F
:102F4000DFE802F00212151703220D88E25410F098
:102F5000080F14BFC823882343EA054308310360E0
:102F6000416062B630BC704708300222EDE70522AE
:102F7000EBE708300422E8E7094A52F8230038B1A9
:102F8000084A52F82300416042F8231062B6E9E78C
:102F900042F82310034AF7E70080FF1F20AAFF1F13
:102FA000E8A9FF1FF8A9FF1F2DE9F04FDFF800A3E4
:102FB000DFF800B387B044E0A84F4FEA930807EB6F
:102FC000C809013ED9F8042003F00803F6B2A2F1C3
:102FD000080003F0FF04002B40F0FC8057F8383065
:102FE0001B0C99B222F8081C002B00F0EA809C4BC5
:102FF00022F8064C42F8044C53F82620002A00F030
:103000002982984D55F826305860974C45F826008F
:1030100034F81630194424F8161000F04BFC002840
:1030200000F01182914A924B19F0080F00F108004C
:1030300018BF1346C9F8040047F8383008238AF847
:1030400000309AF80040E4B260071AD5894B1B782B
:10305000A3B189490A7802F0FF0322B1013BDBB238
:103060000B7003B900BE85490A7802F0FF032AB14C
:10307000013BDBB20B70002B00F0BB8104238AF80C
:10308000003004F0080303F0FF02002B00F0C680BC
:103090009BF80030DBB21E098ED19C086F4F57F8A9
:1030A000342007EBC401C2F38302013A49680C2AB9
:1030B00000F28380DFE802F077778181818181816E
:1030C00040818181070008686D4B6E4D0193674B0D
:1030D0004A686D4E47F8343081B240F28164684BE3
:1030E0006A60286000220120A1421A603A61BA6138
:1030F000307000F2E180B1F5D06F80F02582B1F53B
:10310000817F00F0DE8100F2C181802900F03482ED
:10311000822940F0DC81A9885C4B042900F2D88127
:103120005B4C89000B44227062701A78930740F15F
:1031300022832070022023E2514B01931A683AB394
:10314000544B514E5449188834780D78402886469F
:1031500045F0020828BF4FF0400E002C84F0010417
:103160003470CEEB00000CBF8824C82407EBC806DF
:1031700080B285F0010544EA0E447260188047F879
:10318000384072440D70002800F0B780019B1A602F
:103190003C4B1A88B2F5A06F0FD100219A78597074
:1031A0003E4B1A7009E0374A108842F221029042E1
:1031B00000F0A8802D4A47F83420394A01231370C3
:1031C0003CE72A4A2A4B19F0080F18BF134647F864
:1031D000383033E700F08EFB324A334952F826305C
:1031E000002B00F03B8158688C5D42F8260003F10B
:1031F0000802C9F80420032C05D8DFE804F02C02EB
:10320000292602228A551A8819F0080F0CBF882334
:10321000C82343EA024347F838300FE7E00700F1DC
:10322000EB80210600F12881A20706D51F4A20491C
:1032300013780220DBB213700870E30602D51C4B32
:1032400010221A7007B0BDE8F08F04228A55DAE721
:1032500005228A55D7E703228A55D4E70080FF1F4D
:1032600094A9FF1F40A9FF1F6CACFF1FC8004000BE
:10327000880040001CAAFF1FA5A9FF1F24AAFF1F4A
:103280003CA9FF1F08AAFF1FA4A9FF1FC0200740D9
:1032900014AAFF1F50A9FF1F10AAFF1F9820074064
:1032A00094200740E8A9FF1F20AAFF1F882007409D
:1032B000802007409020074042F22104A14200F004
:1032C000948043D8B1F5086F00F0A881B1F5106F74
:1032D00040F0FD80B84AB94CA978117004F180051E
:1032E00003E00834AC4200F09E81236A1906F8D549
:1032F000606A083800F0FEFAF3E7BEF1400F18BF2D
:10330000002243E7AE4ACD1D11F8013B02F8013F10
:10331000A942F9D1AB4A1268862A00F01181AA4964
:10332000AA4E0A78307882F00105002842F00202A5
:103330000D700CBF8821C82147F8321007EBC2027C
:1033400080F0010000213070516033E742F2212407
:10335000A14240F0FE81DFF8BCC29D4B9D49AC7894
:10336000DCF800501D6081460C7000200290804601
:103370008446044694490D7845F0020E07EBCE03CF
:10338000B9F1000F5C600CBF8824C82444EA08032C
:1033900085F0010447F83E3032700C70DFF81CE213
:1033A0008A4BDFF82482002840F09880BCF1400F5F
:1033B0001BD144F0020407EBC403029FDFF8FCE1D9
:1033C0005F60002A40F09F80020442F088020744B8
:1033D0004EF8342086F800900D703B46402804D10A
:1033E00000207D4A019910800B607C4A01231370F4
:1033F000E3E600F0C7FB41E6704B784872491A617A
:103400004FF0020E80F800E0754F0A7075491960A0
:103410009960754E754D764C9A610D213970FF217A
:103420003170DFF8F4E129702270724D724A8EF823
:1034300000109F27012406F8047C5D600470DA60A8
:1034400007B0BDE8F08F6D4A47F8380013780133B4
:103450001370F3E543F82600694DD6E58B5D032B29
:1034600067D801A252F823F03D3000003D30000043
:10347000BD340000B734000059495C4B80220D2058
:1034800008701A70A2077FF5D8AECFE640F202327C
:10349000914240F05681A98801F07F01042916D895
:1034A0006A88A2B94E4C89000C448146217841F0CB
:1034B0000201217059E701238B55BFE500238B558D
:1034C000BCE5A98801F07F01042940F24781444B03
:1034D0000F221A70414A012313706EE640287FF6CE
:1034E00068AF44F002040EEBC401029E4E60AAB124
:1034F000444A83F800903346403888F800504033FF
:103500004EF834206DE70204029B86F8009042F0EA
:10351000C8020D7003444EF834205FE783F8009032
:10352000029B304A88F80050403840334EF834202F
:1035300057E719F0080F0CBF022303238B557DE5D5
:10354000314A0F211170EAE6304A5468002CBED08F
:103550006888B5F804E003E00C325468002CB6D05B
:1035600013888342F8D153887345F5D1000A0328A4
:103570000CBF2078108903E0254C02202270627075
:10358000EA88824280F00C810F490D78402A45F08C
:10359000020E944607EBCE0028BF4FF0400C04EB20
:1035A0000C0344600293CCEB02004FEA0C484FF04E
:1035B00001090022C824E9E61CAAFF1F0080FF1FA2
:1035C00073ACFF1F74ACFF1F10AAFF1FA4A9FF1F3D
:1035D0007CACFF1F34AAFF1F50A9FF1F9420074097
:1035E000C020074088004000882007408020074016
:1035F0009820074054A9FF1FA8A9FF1F11AAFF1F69
:1036000040A9FF1FC8004000A5A9FF1F50ED000002
:1036100014AAFF1F38A9FF1F8C200740684A694C75
:1036200012782270ACE76849684B694A029169498F
:10363000694C6A4D039405964FF0000988461C4674
:1036400016460495206828B1456800F053F92846CD
:10365000002DF9D100232360049B30681A46002313
:1036600042F8293028B1456800F044F92846002D79
:10367000F9D100223260029A98F8003011460022F7
:1036800041F8042B039A0291023B4FF0000122F80B
:103690001910032B07D8DFE803F0340234024FF08F
:1036A000010388F8003009F10109B9F1040F04F1B0
:1036B000040406F1040608F10108C3D1484B059E35
:1036C000DFF83091DFF8308100211970012518F8FA
:1036D000013B09F8043B1A0718D4AC0044F002027D
:1036E00044F00304002347F8323047F834303D4BB0
:1036F000994505F10105EAD196F8009089F001029B
:1037000033E64FF0000388F80030CCE700F0D2F841
:10371000AC0007EB451300F10802002837D05A60CF
:10372000314B47F8343000F0C5F844F0010307EBA3
:10373000C30200F1080100B351602C4A47F833205E
:10374000CCE7B1F5A06F7FF4C2AE00224FF00109C3
:103750000BE642F221329142F7D0B8E66A88002A9D
:103760007FF4B5AE224C89000C448146217821F0CB
:1037700002012170F9E5022002E7194B44F0010231
:103780001B7847F83200164A01331370A6E7144B32
:10379000134A1B78AC00013347F834001370C2E7BA
:1037A0004028844628BF4FF0400C04EB0C03CCEBC0
:1037B00000004FEA0C48029300224FF00109D9E5BE
:1037C0001CAAFF1F14AAFF1FF8A9FF1F94A9FF1F1F
:1037D000E8A9FF1F20AAFF1F6CACFF1F40A9FF1F15
:1037E00011AAFF1FD420074088004000C8004000F5
:1037F000C0200740C42007404CED00002DE9F843ED
:10380000204C01F05BFF002204F1880023461A607F
:103810005A60083383424FF00001F8D11A4A1B4F17
:1038200013681B4D1B481C4EDFF87880DFF878C00A
:10383000DFF87890DFF878E043F480231360C4F376
:1038400007233B70C4F307432B70240EFF2302F5BC
:1038500028320470114D88F8003011488CF800307F
:10386000D4323370012389F8003070268EF80010AE
:103870004FF40074102107F8183C2E70046011708A
:10388000BDE8F8830080FF1F348004409C2007407F
:10389000B0200740B42007401020074049E400E072
:1038A00008E100E08020074088200740942007407E
:1038B0000021074072B60D480268B2FA82F30B2B62
:1038C00010DC4FF00041D94022EA0102026062B6EA
:1038D000074803EBC303DB00C2180021C1501046A8
:1038E0005160704762B60020704700BF2C98FF1FE0
:1038F000BC8FFF1F0D4B0E4AC31AA2FB03231B09EB
:103900000B2B0CD80B4A127852B972B60A484FF0FA
:103910000041026821FA03F31A43026062B670475D
:10392000064A1278002AF0D0FFF7BABABC8FFF1F00
:10393000398EE33811AAFF1F2C98FF1F1CAAFF1F06
:1039400038B50F4D286878B143880288C118013313
:1039500093420C7A02D24380204638BDFFF7CAFF5B
:10396000002320462B6038BD064B1B782BB103206B
:10397000FFF762FA28600028E6D14FF0FF3038BD2B
:1039800030AAFF1F1CAAFF1F10B5094C206818B1F0
:1039900043881844007A10BD064B1B782BB10320D6
:1039A000FFF74AFA20600028F2D14FF0FF3010BD37
:1039B00030AAFF1F1CAAFF1F044B054A1B689088F2
:1039C0001BB11A885B88D31A1844704730AAFF1FAE
:1039D0006CACFF1F0B4B1B789BB110B50A4C2068D9
:1039E00048B1FFF787FF002303202360FFF724FA85
:1039F00030B1FFF77FFF0320FFF71EFA0028F8D150
:103A000010BD70471CAAFF1F30AAFF1F2DE9F04F01
:103A1000DFF8F89083B0012289F80020019169B3A2
:103A2000DFF8EC80364F019E8346D8F80000B0B333
:103A3000344D4488C4F14001B14228BF314604EB03
:103A4000010E00221FFA8EFE2A70761AA0F802E0FC
:103A500000F1080251B1013C224459441BF8014BCA
:103A600002F8014F8B45F9D1B0F802E0BEF13F0FEB
:103A70000BD8254A05211170002ED6D101980023BC
:103A800089F8003003B0BDE8F08F40220280014683
:103A90000420FFF747FA0022C8F80020E9E73A7847
:103AA0002AB3184D4AF2F9244FF0010A07E0013C0D
:103AB00016D02A78A2B900F0C5FB3A78BAB1042032
:103AC000FFF7D8F90728F2D889F800A0FFF7F2FE2F
:103AD000C8F800000028ACD10C4B013C1870E8D1AC
:103AE00001234FF0FF302B7003B0BDE8F08F0023AF
:103AF0004FF0FF3089F8003003B0BDE8F08F00BF11
:103B00001CAAFF1F2CAAFF1F24AAFF1F25AAFF1F04
:103B100028AAFF1F00B583B002AB012103F8010DF5
:103B20001846FFF773FF03B05DF804FBF8B5114BBF
:103B30001B788BB1104E114D346801272F7064B182
:103B40000F4A638800271770214623800420FFF75F
:103B5000E9F9376000232B70F8BDFFF7ABFE084B87
:103B600028B1014604201C70FFF7DCF9F2E71F7052
:103B7000F0E700BF1CAAFF1F28AAFF1F25AAFF1FEE
:103B800024AAFF1F38B50E4B1B7873B90D4C216862
:103B900061B103F0FF054B880B800420FFF7C2F9E9
:103BA000256038BD084B01221A7038BDFFF782FE30
:103BB0000028F7D00146BDE838400420FFF7B2B92D
:103BC00025AAFF1F28AAFF1F24AAFF1FC029F0B49F
:103BD00028BFC02172B6114B114E1860002333600C
:103BE0007360B360F36033617361012799B15D095C
:103BF00003F01F0456F8252007FA04F4013322438A
:103C00008B4246F82520F2D10023437001338B42CA
:103C100000F58270F9D162B6F0BC704740AAFF1F70
:103C200048AAFF1F70B472B6204B196821B95968B1
:103C300021B30433202200E000221D4E3478B1FA73
:103C400081F54FF00040E8400134E4B221EA000081
:103C50003470186062B6531B03EB83139A00154B44
:103C60001549186802F5FB531C330122C2540A7827
:103C7000A242184438BF0C7070BC7047996821B9D3
:103C8000D96829B10C336022D7E708334022D4E742
:103C9000196921B9596929B11433A022CDE710332C
:103CA0008022CAE762B60846E6E700BF48AAFF1FBF
:103CB00045AAFF1F40AAFF1F3CAAFF1F427872B609
:103CC0000378012B03D9013B037062B6704770B4CF
:103CD00056110A4D0A4C55F826102378D2434FF05E
:103CE000004002F01F0220FA02F21143013B45F8A6
:103CF0002610237062B670BC704700BF48AAFF1F31
:103D000045AAFF1FC368B3B130B401E0DB688BB1D3
:103D1000187A9042FAD158685C7A006950F82450B9
:103D2000002DF3D140F82410087801300870DB68CA
:103D3000002BEDD130BC7047437A8B4206D9036922
:103D4000002253F8210043F82120704700207047DB
:103D500038B5437A8B421AD9036953F821400022BF
:103D600043F821209CB12378012B0ED9FFF75AFF8D
:103D7000054628B14FF48072211D0430FEF72AFB5E
:103D80002378013B2370284638BD204638BD0020EB
:103D900038BD00BF4368427A5B7A9A420ED872B649
:103DA0000168CA680AB90AE01A46D368002BFBD139
:103DB000D060426801230B72137262B67047C8600C
:103DC000F7E700BF084B1A7862B930B407480849D2
:103DD000D02505704FF0804401220C6010461A7007
:103DE00030BC70470020704744AAFF1F5EE400E02B
:103DF00008E100E01A491B4A1B48F8B50B681B4D47
:103E0000046843F080730B60136843F00103136090
:103E10002E6814B915E064699CB1237A002BFAD09E
:103E200023682F681B68204698472B68E188DB1BB6
:103E30001B099AB28B42A28088BFE2806469002C81
:103E4000EBD10A4B0A4A1B6810880A4C9B1B1B09C2
:103E500099B28342218001D91180F8BDF8BD00BF1D
:103E6000FCED00E0001000E038AAFF1F041000E0A5
:103E700046AAFF1F60AAFF1FF0B572B699B9026883
:103E80008AB103790F2B0ED8274C218841FA03F50C
:103E9000ED070AD503F1007303F59063B2EB431FFE
:103EA00003D162B6F0BD204C2188002341FA03F211
:103EB00012F0010207D00133102BF7D162B60022B5
:103EC00003710260F0BD01259D402943218062B647
:103ED000164E174D174FDFF864E0D9B20171346800
:103EE00044F0020434602C6844F002042C60A6F50F
:103EF00080268224A5F5802503F100733C6003F53C
:103F00009063223E243D0C4C8EF800105B01317012
:103F10002970217003601A605A609A60DA601A6131
:103F20005A619A61DA61F0BD62AAFF1F40800440C5
:103F30003C800440008000401F8000401A80004008
:103F400003790F2B11D8094A10B4137072B60849BF
:103F500004790A880123A34022EA03030B8062B696
:103F60001022002310BC0271036070471A800040C9
:103F700062AAFF1FF8B572B106460F461446002527
:103F8000336817F8011B1B6830469847013C05440D
:103F9000F6D12846F8BD1546FBE700BF00B5064A36
:103FA000036812885B6883B001A9ADF8042002227F
:103FB000984703B05DF804FB18ED0000F0B5074624
:103FC0008BB0002A33D0012A08BF0A2251B3212422
:103FD00000E0F4B2B1FBF2F502FB1511C8B20929F9
:103FE00000F1300198BFC8B20AA988BF3730214418
:103FF00088BFC0B201F8240C661E2946002DE8D106
:1040000033B1013CE4B20AAB23442D2203F8242C43
:104010003B6801AA11195B683846C4F1220298472F
:104020000BB0F0BD30228DF825202124E8E703688D
:10403000C9B21B6898470BB0F0BD00BFFFFFFFFF80
:104040002DE9F04385B080461946104616461F46B6
:104050009DF8305002F022FC002840F0B18027F09B
:104060000044304621464FF0FF32594B02F016FC17
:1040700098B9304621464FF0FF32554B02F0F0FB25
:1040800058B9D8F8003053495B6840460322984736
:104090008146484605B0BDE8F083304639464FF0CA
:1040A00060424D4B02F0F0FB002870D1304639469B
:1040B0004FF06042494B02F0C9FB002867D13046FF
:1040C00039460022002302F0C1FB002863D181465B
:1040D000002D65D0424B00240022104619463AA319
:1040E000D3E9002302F040F901340B46E1B28D42DE
:1040F0000246F2D83046394601F084FF0F460646A4
:1041000002F0E2FB044602F0B9F802460B463046E4
:10411000394601F075FF4B4606460F460A222146F6
:104120004046FFF74BFF0F2D28BF0F2501352E23EB
:104130008146EDB28DF8003001240022294B304633
:10414000394602F011F90F46064602F0BDFB04ABFA
:104150002344C0B200F1300203F8102C02F09EF8A4
:1041600002460B463046394601F04AFF0134E4B2BC
:10417000A54206460F46E0D1D8F800302A465B68D3
:10418000404669469847484605B0BDE8F083D8F8F0
:104190000030154978E707F100474FF0010997E72C
:1041A00000220F4B3046394601F02CFF02F08CFB09
:1041B0004B4601460A224046FFF700FF814668E76A
:1041C000D8F8003009495FE7000000A09999B93F8D
:1041D000FFFFEF7F24ED0000FFFFEF41FFFFEFC186
:1041E0000000E03F0000244020ED00001CED000036
:1041F00008B5FCF763F9FCF7E1F900F023F8FAE7FA
:10420000FFF7E8BBFFF792BCFFF7BEBBFFF798BB19
:10421000FFF7D2BB08461146FFF7F8BB0846FFF789
:1042200079BC00BF704700BF044B054A1A604FF4C9
:104230007A71002299601A711A73704764AAFF1F7D
:1042400030ED000010B5154C237803B110BD0123EB
:104250002370FFF7B1FB58B900F0E8FA70B900F02D
:1042600087FE88B901F050F9A0B90023237010BD72
:10427000FFF7D8FF00F0DAFA0028F0D001F0D4FA06
:1042800000F076FE0028EDD001F082FB01F03CF951
:104290000028EAD001F030FCE7E700BF74AAFF1F56
:1042A000F0B44D1E2E46002400E00134B0FBF2F3C2
:1042B00002FB1300092800F130078ABF3730F8B23B
:1042C000C0B206F8010F1846002BEED10A19537040
:1042D0004CB1107815F8016F28700133E01A834251
:1042E00002F80169F5DB0846F0BC70472DE9F84F8C
:1042F000214B1B6807460BB101221A70DFF888902A
:104300001E4D99F80040DFF884801D4E01343F2C8B
:104310008ABF4FF0000A5FFA84FA5446AB462B7806
:10432000A34216D1FEF760FB40281FDC33791B0641
:10433000F5D59BF8003001333F2B86BF0022134692
:10434000DAB218F80330DBB2F3712A702B78A3428B
:10435000E8D00C490A4BFFB208F804700120BC22D7
:10436000087089F800A0DA70BDE8F88FFF28D6DD64
:10437000FFF768FFD3E700BF08ABFF1F05ABFF1FC8
:1043800000A0064004ABFF1F0CABFF1F80AAFF1F5D
:10439000274A28491368F0B543F4806313600A780C
:1043A000254F264E264D274C274900233B7033705E
:1043B0002B7023700B70002A35D0152A26D0234B82
:1043C0001B78012B2AD0052B03D1214B4FF45172BE
:1043D0001A60204B204C2149C0F34436C0F34715E6
:1043E0001E7000F01F005D7004224FF0020E88273F
:1043F0003C26402598729A704FF4005083F813E0E1
:104400005A751F74DE7025700860F0BD144B40F2C1
:1044100013321A600D4B1B78012BD4D1114B4FF482
:1044200051721A60D5E7104B40F213321A60C6E79A
:1044300034800440C0AAFF1F7CAAFF1F7DAAFF1F73
:104440000CABFF1F05ABFF1F04ABFF1F3098FF1F16
:104450001CC0044000A006402DE400E004E100E0A0
:1044600018C0044044A0044040A00440144B144928
:104470009B7803F0EC0200F003031343420700F0C3
:104480000F0248BF43F01003042A8B7013D00C4B6B
:104490000B4A5B79C10603F0EF0348BF43F01003FA
:1044A00053719379820603F0EF03054A48BF43F046
:1044B0001003937170478B7943F040038B71E6E7EB
:1044C00000A00640214B1B685B053ED510B5204C73
:1044D000237823B1FFF7B6FE2378002BFAD11D48CD
:1044E0001D4A1E4B4FF4005400210460D1701B780C
:1044F000E3B1152B03D11A4B40F203121A60194B8A
:104500001B7803F07F03012B1AD0052B03D1164B28
:1045100040F203121A60154B154816491A68002319
:1045200003700B700AB10123137010BD124B40F2DF
:1045300003121A600B4B1B7803F07F03012BE4D1AD
:104540000E4B40F203121A60E5E7704734800440D6
:1045500004ABFF1F84E100E000A00640C0AAFF1FDB
:1045600018C004403098FF1F1CC0044078AAFF1FE9
:104570007CAAFF1F7DAAFF1F40A0044044A0044066
:104580000A4A38B50546137803F0FF04002BFAD128
:1045900001212846FEF78CFB21462846FEF774FBD6
:1045A000034A044B52F835201A6038BD04ABFF1F94
:1045B00008EC000008ABFF1F09B140F08000174A6B
:1045C0001378984216D010B4154C246864050FD5A2
:1045D00003F07F03012B1CD0052B11D0002900F024
:1045E0007F0114BF6023442301290DD0052902D087
:1045F000107010BC70470B4943F440730B60F7E731
:10460000084B00241C60E9E7074943F440730B6042
:10461000EEE7054B00241C60E0E700BF3098FF1F69
:10462000348004401CC0044044A00440104B1A785D
:1046300082420AD00F490968490505D5AAB1152A51
:1046400009D068B1152801D0187070470A4A40F2A5
:1046500013311160F8E7084A002111600028F1D1F8
:10466000064A40F213311160EEE704490A60E8E7B8
:10467000C0AAFF1F3480044018C0044040A004407A
:104680000D4B1B6813F4806305D0212805D90B4B13
:1046900000201860704718467047094B10B5074C4A
:1046A00053F8303023600121FEF702FB236800221B
:1046B0001A70012010BD00BF3480044078AAFF1F8B
:1046C00008EC00000F4B1B6813F4806308D012281D
:1046D00008D0142811D00C4A537B03F0FE03537307
:1046E00000207047094B40F202321A60064A537BA1
:1046F00043F00103537301207047054B40F202322F
:104700001A60F3E73480044000A006400CA0044087
:1047100014C00440034B1B685B0501D5FFF7E6BDE1
:10472000704700BF348004402DE9F84F294B1B68C7
:104730005A0548D5284B1B6805460BB101221A7053
:1047400005EB010A554540D2DFF89C80234CDFF889
:104750009C90234F0AE015F8012B09F80B20214A01
:104760000123AA45137088F800602ED098F8003015
:10477000227803F1010BBBF13F0F86BF0026B34641
:104780005FFA8BF69345E6D1BC22FA7005E03A79E0
:1047900013060BD422789345DDD1FEF725F9402886
:1047A000F5DDFF28F6DDFFF74DFDF3E72278013256
:1047B0003F2A86BF00210A46D1B219F80220D2B2A0
:1047C000FA712170E6E7BDE8F88F054BBC22DA707C
:1047D000BDE8F88F3480044008ABFF1F05ABFF1F16
:1047E00000A0064004ABFF1F0CABFF1F80AAFF1FF9
:1047F00010B5044C237823B1FFF724FD2378002B58
:10480000FAD110BD04ABFF1F064A074B1B78107886
:10481000DBB2C0B283422CBF3F3000F1FF30C01A80
:10482000704700BF05ABFF1F0CABFF1F054A064BCF
:1048300010781B78C0B2DBB2984238BF4030C01A43
:10484000704700BF7CAAFF1F7DAAFF1F30B4154B25
:10485000154C1A782378D2B2DBB29A421ED00133BB
:104860003F2B0ED91149124B087819680023C0B2AA
:10487000237021B1D31A1A2B01DC00230B7030BC3A
:1048800070470A480A49C05C0968DDB2C0B22570A9
:104890000029F4D09A4238BF4032EBE74FF0FF30A6
:1048A000EDE700BF7CAAFF1F7DAAFF1FC4AAFF1F60
:1048B00078AAFF1F084A094B12781B78DBB29A428C
:1048C00007D00133402B28BF0023054AD05CC0B27B
:1048D00070474FF0FF3070477CAAFF1F7DAAFF1F73
:1048E000C4AAFF1F0D4B1B685B0516D530B40C4BDB
:1048F0000C4CDA780C480D4902F0CB024025DA70F6
:104900005D74DA7842F03402DA7023780268DBB240
:104910000B700AB10023137030BC70473480044020
:1049200000A006407DAAFF1F78AAFF1F7CAAFF1FD8
:10493000F0B4384B1A7912F0300F2CD072B6997D42
:1049400001F0FF0200293DD062B6334F3349387879
:104950000D78334E1C46C0B2EDB2431C402BE179BA
:1049600028BF0023AB4202F1FF32C9B21CBFF15491
:10497000184612F0FF02F0D12A4B1B68C2B23A70FF
:104980004BB1A84236BFC5F14005401B401927284E
:10499000C4BF01221A701F49CA78D2B2150616D4B4
:1049A00052060DD51B4B1B795B0609D51E4B1F49C3
:1049B0001B6800220A7003B11A70164B3C22DA7091
:1049C000F0BC70474022D9795A7462B6E3E70B799C
:1049D0001C06E5D5164B174E1C783378E4B2DBB2D3
:1049E0009C420ED0144D01E0A3420AD00133402B6B
:1049F00028BF00230879E85CC0B2C871087D072889
:104A0000F2D9DBB2034933700B79180644BF7C231B
:104A1000CB70C5E700A006407CAAFF1F7DAAFF1F40
:104A2000C4AAFF1F78AAFF1F08ABFF1F04ABFF1F1C
:104A30000CABFF1F05ABFF1F80AAFF1F274A2849A9
:104A40001368F0B543F4006313600A78254F264ECF
:104A5000264D274C27490023092A3B7033702B70C1
:104A600023700B7035D01A2A26D0234B1B780A2BC3
:104A70002AD01F2B03D1214B4FF451721A60204BC7
:104A8000204C2149C0F34436C0F347151E7000F096
:104A90001F005D7004224FF0020E88273C2640253F
:104AA00098729A704FF4004083F813E05A751F749F
:104AB000DE7025700860F0BD144B40F213321A60AE
:104AC0000D4B1B780A2BD4D1114B4FF451721A6045
:104AD000D5E7104B40F213321A60C6E73480044029
:104AE0003198FF1F80ABFF1F15ABFF1F88ABFF1F67
:104AF00081ABFF1F14ABFF1F3298FF1F00D0044093
:104B000000B006402FE400E004E100E004D00440DF
:104B100010B004400CB00440144B14499B7803F0CF
:104B2000EC0200F003031343420700F00F0248BFFA
:104B300043F01003042A8B7013D00C4B0B4A5B79A3
:104B4000C10603F0EF0348BF43F01003537193799C
:104B5000820603F0EF03054A48BF43F01003937148
:104B600070478B7943F040038B71E6E700B0064055
:104B7000224B1B681B053FD510B5214C237823B170
:104B8000FFF760FB2378002BFAD11E481E4A1F4B0B
:104B90004FF4004400210460D1701B78092B1CD015
:104BA0001A2B03D11A4B40F203121A60194B1B78CF
:104BB00003F07F030A2B1AD01F2B03D1164B40F2B0
:104BC00003121A60154B164816491A680023037021
:104BD0000B700AB10123137010BD134B40F2031286
:104BE0001A600C4B1B7803F07F030A2BE4D10F4BA8
:104BF00040F203121A60E5E7704700BF34800440BA
:104C000014ABFF1F84E100E000B006403198FF1FA5
:104C100004D004403298FF1F00D0044010ABFF1FA7
:104C200080ABFF1F15ABFF1F0CB0044010B0044059
:104C30000A4A38B50546137803F0FF04002BFAD171
:104C400001212846FEF734F821462846FEF71CF8D5
:104C5000034A044B52F835201A6038BD14ABFF1FCD
:104C600008EC000084ABFF1F09B140F08000174A38
:104C70001378984216D010B4154C246824050FD52B
:104C800003F07F030A2B1CD01F2B11D0002900F04A
:104C90007F0114BF602344230A290DD01F2902D0AD
:104CA000107010BC70470B4943F440730B60F7E77A
:104CB000084B00241C60E9E7074943F440730B608C
:104CC000EEE7054B00241C60E0E700BF3298FF1FB1
:104CD0003480044000D0044010B00440124B1A78D5
:104CE00082420CD011490968090507D5092A16D056
:104CF0001A2A0AD009280DD01A2801D01870704736
:104D00000B4A40F213311160F8E7094A00210928E3
:104D10001160F1D1074A40F213311160EEE7054A04
:104D200000211160E6E700BF3198FF1F3480044086
:104D300004D004400CB004400D4B1B6813F4006316
:104D400005D0212805D90B4B002018607047184664
:104D50007047094B10B5074C53F8303023600121E0
:104D6000FDF7A6FF236800221A70012010BD00BFC6
:104D70003480044010ABFF1F08EC00000C4B1B6894
:104D800013F4006306D0172806D00A4A537B03F0B9
:104D9000FE03537300207047074B064A40F202316E
:104DA0001960537B43F0010353730120704700BF28
:104DB0003480044000B0064008B004402DE9F84FAC
:104DC000234B1B681A053BD5224B1B680BB10122F4
:104DD0001A70DFF89090204D99F80040DFF8888035
:104DE0001E4E0134272C8ABF4FF0000A5FFA84FA66
:104DF00054460746AB462B789C4216D1FDF7F4FD8E
:104E000040281FDC33791B06F5D59BF800300133B1
:104E1000272B86BF00221346DAB218F80330DBB224
:104E2000F3712A702B789C42E8D00D490B4BFFB2EE
:104E30000120BC2208F80470087089F800A0DA701C
:104E4000BDE8F88FFF28D6DDFFF7FCF9D3E700BFF8
:104E50003480044084ABFF1F81ABFF1F00B00640CD
:104E600014ABFF1F88ABFF1F18ABFF1F2DE9F84FD6
:104E7000294B1B681A0548D5284B1B6805460BB102
:104E800001221A7005EB010A554540D2DFF89C80DB
:104E9000234CDFF89C90234F0AE015F8012B09F80A
:104EA0000B20214A0123AA45137088F800602ED0F8
:104EB00098F80030227803F1010BBBF1270F86BF71
:104EC0000026B3465FFA8BF69345E6D1BC22FA7012
:104ED00005E03A7913060BD422789345DDD1FDF72E
:104EE00083FD4028F5DDFF28F6DDFFF7ABF9F3E79A
:104EF00022780132272A86BF00210A46D1B219F84A
:104F00000220D2B2FA712170E6E7BDE8F88F054BB6
:104F1000BC22DA70BDE8F88F3480044084ABFF1FF8
:104F200081ABFF1F00B0064014ABFF1F88ABFF1F13
:104F300018ABFF1F10B5044C237823B1FFF782F99B
:104F40002378002BFAD110BD14ABFF1F064A074B84
:104F50001B781078DBB2C0B283422CBF273000F13F
:104F6000FF30C01A704700BF81ABFF1F88ABFF1F27
:104F7000054A064B10781B78C0B2DBB2984238BFA6
:104F80004030C01A704700BF80ABFF1F15ABFF1F3A
:104F900030B4154B154C1A782378D2B2DBB29A4252
:104FA0001ED001333F2B0ED91149124B08781968D6
:104FB0000023C0B2237021B1D31A1A2B01DC0023C5
:104FC0000B7030BC70470A480A49C05C0968DDB202
:104FD000C0B225700029F4D09A4238BF4032EBE7C6
:104FE0004FF0FF30EDE700BF80ABFF1F15ABFF1F99
:104FF00040ABFF1F10ABFF1F084A094B12781B780C
:10500000DBB29A4207D00133402B28BF0023054A68
:10501000D05CC0B270474FF0FF30704780ABFF1FCD
:1050200015ABFF1F40ABFF1F0D4B1B681B0516D5B3
:1050300030B40C4B0C4CDA780C480D4902F0CB0222
:105040004025DA705D74DA7842F03402DA70237841
:105050000268DBB20B700AB10023137030BC7047DA
:105060003480044000B0064015ABFF1F10ABFF1F9B
:1050700080ABFF1FF0B4384B1A7912F0300F2CD0F0
:1050800072B6997D01F0FF0200293DD062B6334F20
:10509000334938780D78334E1C46C0B2EDB2431C0C
:1050A000402BE17928BF0023AB4202F1FF32C9B2A5
:1050B0001CBFF154184612F0FF02F0D12A4B1B68B6
:1050C000C2B23A704BB1A84236BFC5F14005401B91
:1050D00040192728C4BF01221A701F49CA78D2B2CA
:1050E000150616D452060DD51B4B1B795B0609D548
:1050F0001E4B1F491B6800220A7003B11A70164B21
:105100003C22DA70F0BC70474022D9795A7462B6FA
:10511000E3E70B791C06E5D5164B174E1C78337860
:10512000E4B2DBB29C420ED0144D01E0A3420AD09F
:105130000133282B28BF00230879E85CC0B2C8716E
:10514000087D0728F2D9DBB2034933700B791806C2
:1051500044BF7C23CB70C5E700B0064080ABFF1F87
:1051600015ABFF1F40ABFF1F10ABFF1F84ABFF1F32
:1051700014ABFF1F88ABFF1F81ABFF1F18ABFF1FD6
:105180002DE9F84F214B1B6807460BB101221A701D
:10519000DFF888901E4D99F80040DFF884801D4E9E
:1051A0000134272C8ABF4FF0000A5FFA84FA544674
:1051B000AB462B78A34216D1FDF716FC40281FDC26
:1051C00033791B06F5D59BF800300133272B86BFBA
:1051D00000221346DAB218F80330DBB2F3712A70FA
:1051E0002B78A342E8D00C490A4BFFB208F80470B0
:1051F0000120AC22087089F800A0DA70BDE8F88FB1
:10520000FF28D6DDFFF71EF8D3E700BF00ACFF1F75
:10521000FDABFF1F00C00640FCABFF1F04ACFF1F2F
:1052200094ABFF1F184A19491368F0B543F4805333
:10523000174C184D184FDFF878E01360174E184AD6
:10524000002323708EF80030164C2B700B703B70CF
:1052500040F213373760144D1449C0F344364FF40D
:10526000517727601670C0F347142C2700F01F00F9
:105270004026547090724FF4003493701374D770BA
:105280002E700C60F0BD00BF34800440FDABFF1FEA
:1052900090ABFF1F04ACFF1FFCABFF1F08C0044016
:1052A00000C006400CC0044031E400E004E100E02E
:1052B00091ABFF1F144B14499B7803F0EC0200F0F4
:1052C00003031343420700F00F0248BF43F01003EB
:1052D000042A8B7013D00C4B0B4A5B79C10603F088
:1052E000EF0348BF43F0100353719379820603F034
:1052F000EF03054A48BF43F01003937170478B7961
:1053000043F040038B71E6E700C00640F8B5124B4E
:105310001B68DB041DD5114C237823B1FEF792FFE7
:105320002378002BFAD10E4B0E4F0F4E0F4D104C21
:10533000104811494FF400321A600023FB7040F20C
:10534000031232602A60226803700B7012B10123CD
:105350001370F8BDF8BD00BF34800440FCABFF1FE4
:1053600084E100E000C0064008C004400CC00440D6
:105370008CABFF1F90ABFF1F91ABFF1F0A4A38B5E4
:105380000546137803F0FF04002BFAD101212846CB
:10539000FDF78EFC21462846FDF776FC034A044BB8
:1053A00052F835201A6038BDFCABFF1F08EC000036
:1053B00000ACFF1F09B140F080000F4A13789842FB
:1053C00019D010B40D4C2468E40412D503F07F0307
:1053D000082B02D10A4B00241C60002900F07F0337
:1053E00014BF60214421082B03D1054B41F44071C7
:1053F0001960107010BC70473398FF1F3480044050
:105400000CC00440704700BF0D4B1B6813F4805361
:1054100005D0212805D90B4B00201860704718468D
:105420007047094B10B5074C53F830302360012109
:10543000FDF73EFC236800221A70012010BD00BF5A
:10544000348004408CABFF1F08EC00000C4B1B6841
:1054500013F4805306D00E2806D00A4A537B03F07B
:10546000FE03537300207047074B064A40F2023197
:105470001960537B43F0010353730120704700BF51
:105480003480044000C0064004C00440034B1B6845
:10549000DB0401D5FFF774BE704700BF34800440C1
:1054A00070B5094E04464518AC4204F101040AD017
:1054B0003368DB04F8D514F8010CFFF761FEAC4249
:1054C00004F10104F4D170BD3480044010B5044CE3
:1054D000237823B1FEF7B6FE2378002BFAD110BD56
:1054E000FCABFF1F064A074B1B781078DBB2C0B23B
:1054F00083422CBF273000F1FF30C01A704700BF35
:10550000FDABFF1F04ACFF1F054A064B10781B784C
:10551000C0B2DBB2984238BF4030C01A704700BFFB
:1055200090ABFF1F91ABFF1F30B4154B154C1A7891
:105530002378D2B2DBB29A421ED001333F2B0ED970
:105540001149124B087819680023C0B2237021B1A9
:10555000D31A1A2B01DC00230B7030BC70470A48A9
:105560000A49C05C0968DDB2C0B225700029F4D0D8
:105570009A4238BF4032EBE74FF0FF30EDE700BF13
:1055800090ABFF1F91ABFF1FBCABFF1F8CABFF1F8E
:10559000084A094B12781B78DBB29A4207D00133D4
:1055A000402B28BF0023054AD05CC0B270474FF0A3
:1055B000FF30704790ABFF1F91ABFF1FBCABFF1FCD
:1055C000054B064A1B7806491268DBB20B700AB11C
:1055D00000231370704700BF91ABFF1F8CABFF1F00
:1055E00090ABFF1F30B42B4B1A7994061FD52A4875
:1055F000DA790378294901333F2B0978C8BF0023A2
:105600008B42D2B203D0264CD9B2E2540170254A63
:10561000116861B1244A1278D2B2934236BFC2F106
:1056200040029B1A9B18272BC4BF01230B70194AF9
:10563000D378DBB2180611D45A060DD5154B1B7959
:105640005B0609D5194B1A491B6800220A7003B181
:105650001A70104B2C22DA7030BC70471179090691
:10566000EAD5144910480C780178C9B28C420DD0A3
:105670004A1C272A84BF00210A460F4D054C98BFBB
:10568000D1B2AA5CD2B2E2710170D5E76C21D170BF
:10569000D2E700BF00C0064090ABFF1F91ABFF1FD9
:1056A000BCABFF1F8CABFF1FFDABFF1F00ACFF1F90
:1056B000FCABFF1F04ACFF1F94ABFF1F70B584B0A1
:1056C00072B6194B194D1A48702241260F248021B9
:1056D0001A702E701A460470197013781B06FCD5C8
:1056E000144B186862B6144B144C984298BF00EBE8
:1056F000800001A998BF40000A22FEF7D1FD01A950
:105700002046002311F8012B01333AB10A2B20F86F
:10571000022FF7D11623237004B070BD5B00DBB2FB
:10572000237004B070BD00BF0000024007000240BB
:1057300006000240080002407F969800C098FF1FB4
:105740000368C9B21B6818470368C9B21B681847C9
:105750000368C9B21B6818470368C9B21B681847B9
:1057600008B50846FEF7D6FF012008BD08B5084673
:10577000FEF7D0FF012008BD38B508460D4601F000
:105780007FFE044601462846FEF7CEFF204638BD80
:1057900010B5084614461146FEF7C6FF204610BD58
:1057A000FFF732B8FFF79EB808B50846FEF78AFF44
:1057B000003018BF012008BD08B50846FEF760FF9D
:1057C000003018BF012008BD08461146FEF7F4BEA0
:1057D0000846FEF72BBF00BF0846FEF7D1BE00BF4C
:1057E000FEF770BE4B0803F1376000F5D830B0FB10
:1057F000F1F0FEF7CDBD00BF10B54B0803F13760E7
:10580000144600F5D830B0FBF1F0FEF7C1FD20469C
:10581000BDE81040FEF72ABEFEF7EABFFFF74AB820
:10582000FFF714B8FFF702B8704700BF044B054AF2
:105830001A604FF47A71002299601A711A737047D6
:1058400008ACFF1FACED000008B50846FFF7B6FA3C
:10585000012008BD08B50846FFF7B0FA012008BDD1
:1058600038B508460D4601F00BFE044601462846B1
:10587000FFF7FCFA204638BD10B50846144611461D
:10588000FFF7F4FA204610BDFFF760BBFFF7CCBB73
:1058900008B50846FFF772FA003018BF012008BDAE
:1058A00008B50846FFF748FA003018BF012008BDC8
:1058B00008461146FFF7D8B90846FFF70FBA00BFF0
:1058C0000846FFF7B5B900BFFFF752B94B0803F11F
:1058D000376000F5D830B0FBF1F0FFF7AFB800BF8C
:1058E00010B54B0803F13760144600F5D830B0FB13
:1058F000F1F0FFF7A3F82046BDE81040FFF70CB920
:10590000FFF718BBFFF778BBFFF742BBFFF730BBD1
:105910000368064A1B68934205D110B5C8B2FFF769
:105920004DFA012010BDC9B2184700BF55580000FC
:105930000368064A1B68934205D110B5C8B2FFF749
:105940003DFA012010BDC9B2184700BF55580000EC
:105950000368064A1B68934205D110B5C8B2FFF729
:105960002DFA012010BDC9B2184700BF55580000DC
:105970000368064A1B68934205D110B5C8B2FFF709
:105980001DFA012010BDC9B2184700BF55580000CC
:10599000704700BF044B054A1A604FF47A71002229
:1059A00099601A711A73704718ACFF1F0CEE000053
:1059B00008B50846FFF76AFD012008BD08B508468E
:1059C000FFF764FD012008BD38B508460D4601F01B
:1059D00057FD044601462846FFF762FD204638BDC4
:1059E00010B5084614461146FFF75AFD204610BD73
:1059F000FFF778BDFFF7E4BD08B50846FFF726FDC1
:105A0000003018BF012008BD08B50846FFF7FCFCB0
:105A1000003018BF012008BD08461146FFF7CABC78
:105A20000846FFF7EFBC00BF0846FFF7A7BC00BF62
:105A3000FFF76CBC4B0803F1B76000F55840B0FBB2
:105A4000F1F0FFF7EFBB00BF10B54B0803F1B760F3
:105A5000144600F55840B0FBF1F0FFF7E3FB204699
:105A6000BDE81040FFF726BCFFF730BDFFF790BD43
:105A7000FFF75ABDFFF748BD0368064A1B6893420B
:105A800005D110B5C8B2FFF701FD012010BDC9B2A4
:105A9000184700BFBD5900000368064A1B689342BF
:105AA00005D110B5C8B2FFF7F1FC012010BDC9B295
:105AB000184700BFBD5900000368064A1B6893429F
:105AC00005D110B5C8B2FFF7E1FC012010BDC9B285
:105AD000184700BFBD5900000368064A1B6893427F
